{
  "contractName": "FruitsToken",
  "abi": [
    {
      "inputs": [
        {
          "internalType": "string",
          "name": "_name",
          "type": "string"
        },
        {
          "internalType": "string",
          "name": "_symbol",
          "type": "string"
        },
        {
          "internalType": "uint256",
          "name": "_amount",
          "type": "uint256"
        }
      ],
      "stateMutability": "nonpayable",
      "type": "constructor"
    },
    {
      "anonymous": false,
      "inputs": [
        {
          "indexed": false,
          "internalType": "address",
          "name": "owner",
          "type": "address"
        },
        {
          "indexed": false,
          "internalType": "address",
          "name": "spender",
          "type": "address"
        },
        {
          "indexed": false,
          "internalType": "uint256",
          "name": "value",
          "type": "uint256"
        }
      ],
      "name": "Approval",
      "type": "event"
    },
    {
      "anonymous": false,
      "inputs": [
        {
          "indexed": false,
          "internalType": "address",
          "name": "from",
          "type": "address"
        },
        {
          "indexed": false,
          "internalType": "address",
          "name": "to",
          "type": "address"
        },
        {
          "indexed": false,
          "internalType": "uint256",
          "name": "value",
          "type": "uint256"
        }
      ],
      "name": "Transfer",
      "type": "event"
    },
    {
      "inputs": [
        {
          "internalType": "address",
          "name": "",
          "type": "address"
        },
        {
          "internalType": "address",
          "name": "",
          "type": "address"
        }
      ],
      "name": "allowance",
      "outputs": [
        {
          "internalType": "uint256",
          "name": "",
          "type": "uint256"
        }
      ],
      "stateMutability": "view",
      "type": "function"
    },
    {
      "inputs": [
        {
          "internalType": "address",
          "name": "spender",
          "type": "address"
        },
        {
          "internalType": "uint256",
          "name": "amount",
          "type": "uint256"
        }
      ],
      "name": "approve",
      "outputs": [
        {
          "internalType": "bool",
          "name": "",
          "type": "bool"
        }
      ],
      "stateMutability": "nonpayable",
      "type": "function"
    },
    {
      "inputs": [
        {
          "internalType": "address",
          "name": "account",
          "type": "address"
        }
      ],
      "name": "balanceOf",
      "outputs": [
        {
          "internalType": "uint256",
          "name": "",
          "type": "uint256"
        }
      ],
      "stateMutability": "view",
      "type": "function"
    },
    {
      "inputs": [
        {
          "internalType": "address",
          "name": "",
          "type": "address"
        }
      ],
      "name": "balances",
      "outputs": [
        {
          "internalType": "uint256",
          "name": "",
          "type": "uint256"
        }
      ],
      "stateMutability": "view",
      "type": "function"
    },
    {
      "inputs": [
        {
          "internalType": "uint256",
          "name": "amount",
          "type": "uint256"
        }
      ],
      "name": "burn",
      "outputs": [],
      "stateMutability": "nonpayable",
      "type": "function"
    },
    {
      "inputs": [
        {
          "internalType": "uint256",
          "name": "_number",
          "type": "uint256"
        }
      ],
      "name": "buyBanana",
      "outputs": [],
      "stateMutability": "payable",
      "type": "function"
    },
    {
      "inputs": [
        {
          "internalType": "uint256",
          "name": "_number",
          "type": "uint256"
        }
      ],
      "name": "buyMango",
      "outputs": [],
      "stateMutability": "payable",
      "type": "function"
    },
    {
      "inputs": [],
      "name": "decimals",
      "outputs": [
        {
          "internalType": "uint256",
          "name": "",
          "type": "uint256"
        }
      ],
      "stateMutability": "view",
      "type": "function"
    },
    {
      "inputs": [],
      "name": "ethCanBuy",
      "outputs": [
        {
          "internalType": "uint256",
          "name": "",
          "type": "uint256"
        }
      ],
      "stateMutability": "view",
      "type": "function"
    },
    {
      "inputs": [],
      "name": "getBanana",
      "outputs": [
        {
          "internalType": "uint256",
          "name": "",
          "type": "uint256"
        }
      ],
      "stateMutability": "view",
      "type": "function"
    },
    {
      "inputs": [],
      "name": "getMango",
      "outputs": [
        {
          "internalType": "uint256",
          "name": "",
          "type": "uint256"
        }
      ],
      "stateMutability": "view",
      "type": "function"
    },
    {
      "inputs": [],
      "name": "name",
      "outputs": [
        {
          "internalType": "string",
          "name": "",
          "type": "string"
        }
      ],
      "stateMutability": "view",
      "type": "function"
    },
    {
      "inputs": [],
      "name": "owner",
      "outputs": [
        {
          "internalType": "address",
          "name": "",
          "type": "address"
        }
      ],
      "stateMutability": "view",
      "type": "function"
    },
    {
      "inputs": [
        {
          "internalType": "uint256",
          "name": "_price",
          "type": "uint256"
        },
        {
          "internalType": "uint256",
          "name": "_number",
          "type": "uint256"
        }
      ],
      "name": "sellBanana",
      "outputs": [],
      "stateMutability": "payable",
      "type": "function"
    },
    {
      "inputs": [
        {
          "internalType": "uint256",
          "name": "_price",
          "type": "uint256"
        },
        {
          "internalType": "uint256",
          "name": "_number",
          "type": "uint256"
        }
      ],
      "name": "sellMango",
      "outputs": [],
      "stateMutability": "payable",
      "type": "function"
    },
    {
      "inputs": [],
      "name": "symbol",
      "outputs": [
        {
          "internalType": "string",
          "name": "",
          "type": "string"
        }
      ],
      "stateMutability": "view",
      "type": "function"
    },
    {
      "inputs": [],
      "name": "totalSupply",
      "outputs": [
        {
          "internalType": "uint256",
          "name": "",
          "type": "uint256"
        }
      ],
      "stateMutability": "view",
      "type": "function"
    },
    {
      "inputs": [
        {
          "internalType": "address",
          "name": "recipient",
          "type": "address"
        },
        {
          "internalType": "uint256",
          "name": "amount",
          "type": "uint256"
        }
      ],
      "name": "transfer",
      "outputs": [
        {
          "internalType": "bool",
          "name": "",
          "type": "bool"
        }
      ],
      "stateMutability": "nonpayable",
      "type": "function"
    },
    {
      "inputs": [
        {
          "internalType": "address",
          "name": "sender",
          "type": "address"
        },
        {
          "internalType": "address",
          "name": "recipient",
          "type": "address"
        },
        {
          "internalType": "uint256",
          "name": "amount",
          "type": "uint256"
        }
      ],
      "name": "transferFrom",
      "outputs": [
        {
          "internalType": "bool",
          "name": "",
          "type": "bool"
        }
      ],
      "stateMutability": "nonpayable",
      "type": "function"
    },
    {
      "stateMutability": "payable",
      "type": "receive"
    },
    {
      "inputs": [
        {
          "internalType": "uint256",
          "name": "_number",
          "type": "uint256"
        }
      ],
      "name": "buyBanana_costToken",
      "outputs": [],
      "stateMutability": "nonpayable",
      "type": "function"
    },
    {
      "inputs": [
        {
          "internalType": "uint256",
          "name": "_price",
          "type": "uint256"
        },
        {
          "internalType": "uint256",
          "name": "_number",
          "type": "uint256"
        }
      ],
      "name": "sellBanana_costToken",
      "outputs": [],
      "stateMutability": "nonpayable",
      "type": "function"
    },
    {
      "inputs": [
        {
          "internalType": "uint256",
          "name": "_number",
          "type": "uint256"
        }
      ],
      "name": "buyMango_costToken",
      "outputs": [],
      "stateMutability": "nonpayable",
      "type": "function"
    },
    {
      "inputs": [
        {
          "internalType": "uint256",
          "name": "_price",
          "type": "uint256"
        },
        {
          "internalType": "uint256",
          "name": "_number",
          "type": "uint256"
        }
      ],
      "name": "sellMango_costToken",
      "outputs": [],
      "stateMutability": "nonpayable",
      "type": "function"
    }
  ],
  "bytecode": "0x6080604052601260025560646009553480156200001b57600080fd5b50604051620026a7380380620026a783398181016040528101906200004191906200035f565b33600860006101000a81548173ffffffffffffffffffffffffffffffffffffffff021916908373ffffffffffffffffffffffffffffffffffffffff16021790555082600090816200009391906200063a565b508160019081620000a591906200063a565b50620000d4600254600a620000bb9190620008a4565b82620000c89190620008f5565b620000dd60201b60201c565b50505062000a0e565b80600460003373ffffffffffffffffffffffffffffffffffffffff1673ffffffffffffffffffffffffffffffffffffffff16815260200190815260200160002060008282546200012e919062000940565b92505081905550806003600082825462000149919062000940565b925050819055507fddf252ad1be2c89b69c2b068fc378daa952ba7f163c4a11628f55a4df523b3ef600033836040516200018693929190620009d1565b60405180910390a150565b6000604051905090565b600080fd5b600080fd5b600080fd5b600080fd5b6000601f19601f8301169050919050565b7f4e487b7100000000000000000000000000000000000000000000000000000000600052604160045260246000fd5b620001fa82620001af565b810181811067ffffffffffffffff821117156200021c576200021b620001c0565b5b80604052505050565b60006200023162000191565b90506200023f8282620001ef565b919050565b600067ffffffffffffffff821115620002625762000261620001c0565b5b6200026d82620001af565b9050602081019050919050565b60005b838110156200029a5780820151818401526020810190506200027d565b60008484015250505050565b6000620002bd620002b78462000244565b62000225565b905082815260208101848484011115620002dc57620002db620001aa565b5b620002e98482856200027a565b509392505050565b600082601f830112620003095762000308620001a5565b5b81516200031b848260208601620002a6565b91505092915050565b6000819050919050565b620003398162000324565b81146200034557600080fd5b50565b60008151905062000359816200032e565b92915050565b6000806000606084860312156200037b576200037a6200019b565b5b600084015167ffffffffffffffff8111156200039c576200039b620001a0565b5b620003aa86828701620002f1565b935050602084015167ffffffffffffffff811115620003ce57620003cd620001a0565b5b620003dc86828701620002f1565b9250506040620003ef8682870162000348565b9150509250925092565b600081519050919050565b7f4e487b7100000000000000000000000000000000000000000000000000000000600052602260045260246000fd5b600060028204905060018216806200044c57607f821691505b60208210810362000462576200046162000404565b5b50919050565b60008190508160005260206000209050919050565b60006020601f8301049050919050565b600082821b905092915050565b600060088302620004cc7fffffffffffffffffffffffffffffffffffffffffffffffffffffffffffffffff826200048d565b620004d886836200048d565b95508019841693508086168417925050509392505050565b6000819050919050565b60006200051b620005156200050f8462000324565b620004f0565b62000324565b9050919050565b6000819050919050565b6200053783620004fa565b6200054f620005468262000522565b8484546200049a565b825550505050565b600090565b6200056662000557565b620005738184846200052c565b505050565b5b818110156200059b576200058f6000826200055c565b60018101905062000579565b5050565b601f821115620005ea57620005b48162000468565b620005bf846200047d565b81016020851015620005cf578190505b620005e7620005de856200047d565b83018262000578565b50505b505050565b600082821c905092915050565b60006200060f60001984600802620005ef565b1980831691505092915050565b60006200062a8383620005fc565b9150826002028217905092915050565b6200064582620003f9565b67ffffffffffffffff811115620006615762000660620001c0565b5b6200066d825462000433565b6200067a8282856200059f565b600060209050601f831160018114620006b257600084156200069d578287015190505b620006a985826200061c565b86555062000719565b601f198416620006c28662000468565b60005b82811015620006ec57848901518255600182019150602085019450602081019050620006c5565b868310156200070c578489015162000708601f891682620005fc565b8355505b6001600288020188555050505b505050505050565b7f4e487b7100000000000000000000000000000000000000000000000000000000600052601160045260246000fd5b60008160011c9050919050565b6000808291508390505b6001851115620007af5780860481111562000787576200078662000721565b5b6001851615620007975780820291505b8081029050620007a78562000750565b945062000767565b94509492505050565b600082620007ca57600190506200089d565b81620007da57600090506200089d565b8160018114620007f35760028114620007fe5762000834565b60019150506200089d565b60ff84111562000813576200081262000721565b5b8360020a9150848211156200082d576200082c62000721565b5b506200089d565b5060208310610133831016604e8410600b84101617156200086e5782820a90508381111562000868576200086762000721565b5b6200089d565b6200087d84848460016200075d565b9250905081840481111562000897576200089662000721565b5b81810290505b9392505050565b6000620008b18262000324565b9150620008be8362000324565b9250620008ed7fffffffffffffffffffffffffffffffffffffffffffffffffffffffffffffffff8484620007b8565b905092915050565b6000620009028262000324565b91506200090f8362000324565b92508282026200091f8162000324565b9150828204841483151762000939576200093862000721565b5b5092915050565b60006200094d8262000324565b91506200095a8362000324565b925082820190508082111562000975576200097462000721565b5b92915050565b600073ffffffffffffffffffffffffffffffffffffffff82169050919050565b6000620009a8826200097b565b9050919050565b620009ba816200099b565b82525050565b620009cb8162000324565b82525050565b6000606082019050620009e86000830186620009af565b620009f76020830185620009af565b62000a066040830184620009c0565b949350505050565b611c898062000a1e6000396000f3fe6080604052600436106101445760003560e01c80635c2287b1116100b6578063aa32600c1161006f578063aa32600c14610678578063be4eb986146106a1578063d4431bcd146106bd578063dd62ed3e146106e8578063e9c0dcc814610725578063fac160591461074157610362565b80635c2287b11461056357806370a082311461058c5780638da5cb5b146105c957806395d89b41146105f4578063a3fae6ad1461061f578063a9059cbb1461063b57610362565b806323b872dd1161010857806323b872dd1461043f57806327e235e31461047c578063313ce567146104b957806331b0a2c6146104e457806342966c681461050f578063526bab1e1461053857610362565b806303e607311461036757806306fdde0314610383578063095ea7b3146103ae57806318160ddd146103eb5780631c9d292c1461041657610362565b36610362576000340361015657600080fd5b600060095434610166919061165c565b90508060046000600860009054906101000a900473ffffffffffffffffffffffffffffffffffffffff1673ffffffffffffffffffffffffffffffffffffffff1673ffffffffffffffffffffffffffffffffffffffff1681526020019081526020016000205410156101d657600080fd5b8060046000600860009054906101000a900473ffffffffffffffffffffffffffffffffffffffff1673ffffffffffffffffffffffffffffffffffffffff1673ffffffffffffffffffffffffffffffffffffffff1681526020019081526020016000206000828254610247919061169e565b9250508190555080600460003373ffffffffffffffffffffffffffffffffffffffff1673ffffffffffffffffffffffffffffffffffffffff168152602001908152602001600020600082825461029d91906116d2565b92505081905550600860009054906101000a900473ffffffffffffffffffffffffffffffffffffffff1673ffffffffffffffffffffffffffffffffffffffff163373ffffffffffffffffffffffffffffffffffffffff1603610303576103028161076a565b5b7fddf252ad1be2c89b69c2b068fc378daa952ba7f163c4a11628f55a4df523b3ef600860009054906101000a900473ffffffffffffffffffffffffffffffffffffffff16338360405161035893929190611756565b60405180910390a1005b600080fd5b610381600480360381019061037c91906117be565b610818565b005b34801561038f57600080fd5b50610398610871565b6040516103a5919061187b565b60405180910390f35b3480156103ba57600080fd5b506103d560048036038101906103d091906118c9565b6108ff565b6040516103e29190611924565b60405180910390f35b3480156103f757600080fd5b506104006109c7565b60405161040d919061193f565b60405180910390f35b34801561042257600080fd5b5061043d600480360381019061043891906117be565b6109cd565b005b34801561044b57600080fd5b506104666004803603810190610461919061195a565b610afe565b6040516104739190611924565b60405180910390f35b34801561048857600080fd5b506104a3600480360381019061049e91906119ad565b610d0e565b6040516104b0919061193f565b60405180910390f35b3480156104c557600080fd5b506104ce610d26565b6040516104db919061193f565b60405180910390f35b3480156104f057600080fd5b506104f9610d2c565b604051610506919061193f565b60405180910390f35b34801561051b57600080fd5b50610536600480360381019061053191906117be565b610d32565b005b34801561054457600080fd5b5061054d610de0565b60405161055a919061193f565b60405180910390f35b34801561056f57600080fd5b5061058a600480360381019061058591906119da565b610e27565b005b34801561059857600080fd5b506105b360048036038101906105ae91906119ad565b610f34565b6040516105c0919061193f565b60405180910390f35b3480156105d557600080fd5b506105de610f7d565b6040516105eb9190611a1a565b60405180910390f35b34801561060057600080fd5b50610609610fa3565b604051610616919061187b565b60405180910390f35b610639600480360381019061063491906119da565b611031565b005b34801561064757600080fd5b50610662600480360381019061065d91906118c9565b61112f565b60405161066f9190611924565b60405180910390f35b34801561068457600080fd5b5061069f600480360381019061069a91906117be565b611222565b005b6106bb60048036038101906106b691906119da565b611353565b005b3480156106c957600080fd5b506106d2611451565b6040516106df919061193f565b60405180910390f35b3480156106f457600080fd5b5061070f600480360381019061070a9190611a35565b611498565b60405161071c919061193f565b60405180910390f35b61073f600480360381019061073a91906117be565b6114bd565b005b34801561074d57600080fd5b50610768600480360381019061076391906119da565b611516565b005b80600460003373ffffffffffffffffffffffffffffffffffffffff1673ffffffffffffffffffffffffffffffffffffffff16815260200190815260200160002060008282546107b991906116d2565b9250508190555080600360008282546107d291906116d2565b925050819055507fddf252ad1be2c89b69c2b068fc378daa952ba7f163c4a11628f55a4df523b3ef6000338360405161080d93929190611756565b60405180910390a150565b80600660003373ffffffffffffffffffffffffffffffffffffffff1673ffffffffffffffffffffffffffffffffffffffff168152602001908152602001600020600082825461086791906116d2565b9250508190555050565b6000805461087e90611aa4565b80601f01602080910402602001604051908101604052809291908181526020018280546108aa90611aa4565b80156108f75780601f106108cc576101008083540402835291602001916108f7565b820191906000526020600020905b8154815290600101906020018083116108da57829003601f168201915b505050505081565b600081600560003373ffffffffffffffffffffffffffffffffffffffff1673ffffffffffffffffffffffffffffffffffffffff16815260200190815260200160002060008573ffffffffffffffffffffffffffffffffffffffff1673ffffffffffffffffffffffffffffffffffffffff168152602001908152602001600020819055507f8c5be1e5ebec7d5bd14f71427d1e84f3dd0314c0f7b2291e5b200ac8c7c3b9253384846040516109b593929190611756565b60405180910390a16001905092915050565b60035481565b6000600254600a6109de9190611c08565b60c86109ea919061165c565b905080826109f8919061165c565b600460003373ffffffffffffffffffffffffffffffffffffffff1673ffffffffffffffffffffffffffffffffffffffff168152602001908152602001600020541015610a4357600080fd5b81600660003373ffffffffffffffffffffffffffffffffffffffff1673ffffffffffffffffffffffffffffffffffffffff1681526020019081526020016000206000828254610a9291906116d2565b925050819055508082610aa5919061165c565b600460003373ffffffffffffffffffffffffffffffffffffffff1673ffffffffffffffffffffffffffffffffffffffff1681526020019081526020016000206000828254610af3919061169e565b925050819055505050565b600081600560008673ffffffffffffffffffffffffffffffffffffffff1673ffffffffffffffffffffffffffffffffffffffff16815260200190815260200160002060003373ffffffffffffffffffffffffffffffffffffffff1673ffffffffffffffffffffffffffffffffffffffff168152602001908152602001600020541015610b8957600080fd5b81600560008673ffffffffffffffffffffffffffffffffffffffff1673ffffffffffffffffffffffffffffffffffffffff16815260200190815260200160002060003373ffffffffffffffffffffffffffffffffffffffff1673ffffffffffffffffffffffffffffffffffffffff1681526020019081526020016000206000828254610c15919061169e565b9250508190555081600460008673ffffffffffffffffffffffffffffffffffffffff1673ffffffffffffffffffffffffffffffffffffffff1681526020019081526020016000206000828254610c6b919061169e565b9250508190555081600460008573ffffffffffffffffffffffffffffffffffffffff1673ffffffffffffffffffffffffffffffffffffffff1681526020019081526020016000206000828254610cc191906116d2565b925050819055507fddf252ad1be2c89b69c2b068fc378daa952ba7f163c4a11628f55a4df523b3ef848484604051610cfb93929190611756565b60405180910390a1600190509392505050565b60046020528060005260406000206000915090505481565b60025481565b60095481565b80600460003373ffffffffffffffffffffffffffffffffffffffff1673ffffffffffffffffffffffffffffffffffffffff1681526020019081526020016000206000828254610d81919061169e565b925050819055508060036000828254610d9a919061169e565b925050819055507fddf252ad1be2c89b69c2b068fc378daa952ba7f163c4a11628f55a4df523b3ef33600083604051610dd593929190611756565b60405180910390a150565b6000600660003373ffffffffffffffffffffffffffffffffffffffff1673ffffffffffffffffffffffffffffffffffffffff16815260200190815260200160002054905090565b80600760003373ffffffffffffffffffffffffffffffffffffffff1673ffffffffffffffffffffffffffffffffffffffff168152602001908152602001600020541015610e7357600080fd5b60008183610e81919061165c565b905081600760003373ffffffffffffffffffffffffffffffffffffffff1673ffffffffffffffffffffffffffffffffffffffff1681526020019081526020016000206000828254610ed2919061169e565b9250508190555080600460003373ffffffffffffffffffffffffffffffffffffffff1673ffffffffffffffffffffffffffffffffffffffff1681526020019081526020016000206000828254610f2891906116d2565b92505081905550505050565b6000600460008373ffffffffffffffffffffffffffffffffffffffff1673ffffffffffffffffffffffffffffffffffffffff168152602001908152602001600020549050919050565b600860009054906101000a900473ffffffffffffffffffffffffffffffffffffffff1681565b60018054610fb090611aa4565b80601f0160208091040260200160405190810160405280929190818152602001828054610fdc90611aa4565b80156110295780601f10610ffe57610100808354040283529160200191611029565b820191906000526020600020905b81548152906001019060200180831161100c57829003601f168201915b505050505081565b80600660003373ffffffffffffffffffffffffffffffffffffffff1673ffffffffffffffffffffffffffffffffffffffff16815260200190815260200160002054101561107d57600080fd5b6000818361108b919061165c565b905081600660003373ffffffffffffffffffffffffffffffffffffffff1673ffffffffffffffffffffffffffffffffffffffff16815260200190815260200160002060008282546110dc919061169e565b925050819055503373ffffffffffffffffffffffffffffffffffffffff166108fc829081150290604051600060405180830381858888f19350505050158015611129573d6000803e3d6000fd5b50505050565b600081600460003373ffffffffffffffffffffffffffffffffffffffff1673ffffffffffffffffffffffffffffffffffffffff1681526020019081526020016000206000828254611180919061169e565b9250508190555081600460008573ffffffffffffffffffffffffffffffffffffffff1673ffffffffffffffffffffffffffffffffffffffff16815260200190815260200160002060008282546111d691906116d2565b925050819055507fddf252ad1be2c89b69c2b068fc378daa952ba7f163c4a11628f55a4df523b3ef33848460405161121093929190611756565b60405180910390a16001905092915050565b6000600254600a6112339190611c08565b606461123f919061165c565b9050808261124d919061165c565b600460003373ffffffffffffffffffffffffffffffffffffffff1673ffffffffffffffffffffffffffffffffffffffff16815260200190815260200160002054101561129857600080fd5b81600760003373ffffffffffffffffffffffffffffffffffffffff1673ffffffffffffffffffffffffffffffffffffffff16815260200190815260200160002060008282546112e791906116d2565b9250508190555080826112fa919061165c565b600460003373ffffffffffffffffffffffffffffffffffffffff1673ffffffffffffffffffffffffffffffffffffffff1681526020019081526020016000206000828254611348919061169e565b925050819055505050565b80600760003373ffffffffffffffffffffffffffffffffffffffff1673ffffffffffffffffffffffffffffffffffffffff16815260200190815260200160002054101561139f57600080fd5b600081836113ad919061165c565b905081600760003373ffffffffffffffffffffffffffffffffffffffff1673ffffffffffffffffffffffffffffffffffffffff16815260200190815260200160002060008282546113fe919061169e565b925050819055503373ffffffffffffffffffffffffffffffffffffffff166108fc829081150290604051600060405180830381858888f1935050505015801561144b573d6000803e3d6000fd5b50505050565b6000600760003373ffffffffffffffffffffffffffffffffffffffff1673ffffffffffffffffffffffffffffffffffffffff16815260200190815260200160002054905090565b6005602052816000526040600020602052806000526040600020600091509150505481565b80600760003373ffffffffffffffffffffffffffffffffffffffff1673ffffffffffffffffffffffffffffffffffffffff168152602001908152602001600020600082825461150c91906116d2565b9250508190555050565b80600660003373ffffffffffffffffffffffffffffffffffffffff1673ffffffffffffffffffffffffffffffffffffffff16815260200190815260200160002054101561156257600080fd5b60008183611570919061165c565b905081600660003373ffffffffffffffffffffffffffffffffffffffff1673ffffffffffffffffffffffffffffffffffffffff16815260200190815260200160002060008282546115c1919061169e565b9250508190555080600460003373ffffffffffffffffffffffffffffffffffffffff1673ffffffffffffffffffffffffffffffffffffffff168152602001908152602001600020600082825461161791906116d2565b92505081905550505050565b6000819050919050565b7f4e487b7100000000000000000000000000000000000000000000000000000000600052601160045260246000fd5b600061166782611623565b915061167283611623565b925082820261168081611623565b915082820484148315176116975761169661162d565b5b5092915050565b60006116a982611623565b91506116b483611623565b92508282039050818111156116cc576116cb61162d565b5b92915050565b60006116dd82611623565b91506116e883611623565b9250828201905080821115611700576116ff61162d565b5b92915050565b600073ffffffffffffffffffffffffffffffffffffffff82169050919050565b600061173182611706565b9050919050565b61174181611726565b82525050565b61175081611623565b82525050565b600060608201905061176b6000830186611738565b6117786020830185611738565b6117856040830184611747565b949350505050565b600080fd5b61179b81611623565b81146117a657600080fd5b50565b6000813590506117b881611792565b92915050565b6000602082840312156117d4576117d361178d565b5b60006117e2848285016117a9565b91505092915050565b600081519050919050565b600082825260208201905092915050565b60005b8381101561182557808201518184015260208101905061180a565b60008484015250505050565b6000601f19601f8301169050919050565b600061184d826117eb565b61185781856117f6565b9350611867818560208601611807565b61187081611831565b840191505092915050565b600060208201905081810360008301526118958184611842565b905092915050565b6118a681611726565b81146118b157600080fd5b50565b6000813590506118c38161189d565b92915050565b600080604083850312156118e0576118df61178d565b5b60006118ee858286016118b4565b92505060206118ff858286016117a9565b9150509250929050565b60008115159050919050565b61191e81611909565b82525050565b60006020820190506119396000830184611915565b92915050565b60006020820190506119546000830184611747565b92915050565b6000806000606084860312156119735761197261178d565b5b6000611981868287016118b4565b9350506020611992868287016118b4565b92505060406119a3868287016117a9565b9150509250925092565b6000602082840312156119c3576119c261178d565b5b60006119d1848285016118b4565b91505092915050565b600080604083850312156119f1576119f061178d565b5b60006119ff858286016117a9565b9250506020611a10858286016117a9565b9150509250929050565b6000602082019050611a2f6000830184611738565b92915050565b60008060408385031215611a4c57611a4b61178d565b5b6000611a5a858286016118b4565b9250506020611a6b858286016118b4565b9150509250929050565b7f4e487b7100000000000000000000000000000000000000000000000000000000600052602260045260246000fd5b60006002820490506001821680611abc57607f821691505b602082108103611acf57611ace611a75565b5b50919050565b60008160011c9050919050565b6000808291508390505b6001851115611b2c57808604811115611b0857611b0761162d565b5b6001851615611b175780820291505b8081029050611b2585611ad5565b9450611aec565b94509492505050565b600082611b455760019050611c01565b81611b535760009050611c01565b8160018114611b695760028114611b7357611ba2565b6001915050611c01565b60ff841115611b8557611b8461162d565b5b8360020a915084821115611b9c57611b9b61162d565b5b50611c01565b5060208310610133831016604e8410600b8410161715611bd75782820a905083811115611bd257611bd161162d565b5b611c01565b611be48484846001611ae2565b92509050818404811115611bfb57611bfa61162d565b5b81810290505b9392505050565b6000611c1382611623565b9150611c1e83611623565b9250611c4b7fffffffffffffffffffffffffffffffffffffffffffffffffffffffffffffffff8484611b35565b90509291505056fea2646970667358221220d3cd5f7d2f2868c505f3c1a864fc433516dc62c61717e34e12f04ef2c8b6f9ff64736f6c63430008110033",
  "immutableReferences": {},
  "source": "// SPDX-License-Identifier: MIT\npragma solidity ^0.8.17;\n\n//      import\nimport \"./ERC20.sol\";\nimport \"./FruitsShop.sol\";\n\n//   is , Token ERC20, FruitsShop \ncontract FruitsToken is ERC20, FruitsShop {\n    address public owner; //     \n    uint256 public ethCanBuy = 100; // 1ETH  100  \n\n    constructor(\n        string memory _name,\n        string memory _symbol,\n        uint256 _amount\n    ) {\n        // ERC20    \n        owner = msg.sender;\n        name = _name;\n        symbol = _symbol;\n\n        mint(_amount * (10**uint256(decimals)));\n    }\n\n    //  \n    // receive:   CA     \n    receive() external payable {\n        require(msg.value != 0);\n        uint amount = msg.value * ethCanBuy;\n\n        require(balances[owner] >= amount);\n        balances[owner] -= amount;\n        balances[msg.sender] += amount;\n\n        //  CA    \n        if (msg.sender == owner) {\n            mint(amount);\n        }\n\n        emit Transfer(owner, msg.sender, amount);\n    }\n\n    //    \n    function buyBanana_costToken(uint _number) public {\n        uint price = 200*(10**uint256(decimals));\n        require(balances[msg.sender] >= _number*price);\n        myBanana[msg.sender] += _number;\n        balances[msg.sender] -= _number*price;\n    }\n    //    \n    function sellBanana_costToken(uint _price, uint _number) public {\n        require(myBanana[msg.sender] >= _number);\n        uint refund = _price * _number;\n        myBanana[msg.sender] -= _number;\n        balances[msg.sender] += refund;\n    }\n    \n    //    \n    function buyMango_costToken(uint _number) public {\n        uint price = 100*(10**uint256(decimals));\n        require(balances[msg.sender] >= _number*price);\n        myMango[msg.sender] += _number;\n        balances[msg.sender] -= _number*price;\n    }\n    //    \n    function sellMango_costToken(uint _price, uint _number) public {\n        require(myMango[msg.sender] >= _number);\n        uint refund = _price * _number;\n        myMango[msg.sender] -= _number;\n        balances[msg.sender] += refund;\n    }\n}\n",
  "sourcePath": "/Users/allen/Documents/KGA_blockchain/KGA_class/2022_Dec/221202_fruits_shop/contracts/FruitsToken.sol",
  "compiler": {
    "name": "solc",
    "version": "0.8.17+commit.8df45f5f.Emscripten.clang"
  },
  "schemaVersion": "3.4.11",
  "updatedAt": "2022-12-25T10:21:16.460Z",
  "devdoc": {
    "kind": "dev",
    "methods": {},
    "version": 1
  },
  "userdoc": {
    "kind": "user",
    "methods": {},
    "version": 1
  }
}