{
  "contractName": "FruitsShop",
  "abi": [
    {
      "inputs": [
        {
          "internalType": "uint256",
          "name": "_number",
          "type": "uint256"
        }
      ],
      "name": "buyBanana",
      "outputs": [],
      "stateMutability": "payable",
      "type": "function",
      "payable": true
    },
    {
      "inputs": [
        {
          "internalType": "uint256",
          "name": "_number",
          "type": "uint256"
        }
      ],
      "name": "buyMango",
      "outputs": [],
      "stateMutability": "payable",
      "type": "function",
      "payable": true
    },
    {
      "inputs": [
        {
          "internalType": "uint256",
          "name": "_price",
          "type": "uint256"
        },
        {
          "internalType": "uint256",
          "name": "_number",
          "type": "uint256"
        }
      ],
      "name": "sellBanana",
      "outputs": [],
      "stateMutability": "payable",
      "type": "function",
      "payable": true
    },
    {
      "inputs": [
        {
          "internalType": "uint256",
          "name": "_price",
          "type": "uint256"
        },
        {
          "internalType": "uint256",
          "name": "_number",
          "type": "uint256"
        }
      ],
      "name": "sellMango",
      "outputs": [],
      "stateMutability": "payable",
      "type": "function",
      "payable": true
    },
    {
      "inputs": [],
      "name": "getBanana",
      "outputs": [
        {
          "internalType": "uint256",
          "name": "",
          "type": "uint256"
        }
      ],
      "stateMutability": "view",
      "type": "function",
      "constant": true
    },
    {
      "inputs": [],
      "name": "getMango",
      "outputs": [
        {
          "internalType": "uint256",
          "name": "",
          "type": "uint256"
        }
      ],
      "stateMutability": "view",
      "type": "function",
      "constant": true
    }
  ],
  "bytecode": "0x608060405234801561001057600080fd5b50610639806100206000396000f3fe6080604052600436106100555760003560e01c806303e607311461005a578063526bab1e14610076578063a3fae6ad146100a1578063be4eb986146100bd578063d4431bcd146100d9578063e9c0dcc814610104575b600080fd5b610074600480360381019061006f9190610493565b610120565b005b34801561008257600080fd5b5061008b610178565b60405161009891906104cf565b60405180910390f35b6100bb60048036038101906100b691906104ea565b6101be565b005b6100d760048036038101906100d291906104ea565b6102ba565b005b3480156100e557600080fd5b506100ee6103b8565b6040516100fb91906104cf565b60405180910390f35b61011e60048036038101906101199190610493565b6103ff565b005b806000803373ffffffffffffffffffffffffffffffffffffffff1673ffffffffffffffffffffffffffffffffffffffff168152602001908152602001600020600082825461016e9190610559565b9250508190555050565b60008060003373ffffffffffffffffffffffffffffffffffffffff1673ffffffffffffffffffffffffffffffffffffffff16815260200190815260200160002054905090565b806000803373ffffffffffffffffffffffffffffffffffffffff1673ffffffffffffffffffffffffffffffffffffffff16815260200190815260200160002054101561020957600080fd5b60008183610217919061058d565b9050816000803373ffffffffffffffffffffffffffffffffffffffff1673ffffffffffffffffffffffffffffffffffffffff168152602001908152602001600020600082825461026791906105cf565b925050819055503373ffffffffffffffffffffffffffffffffffffffff166108fc829081150290604051600060405180830381858888f193505050501580156102b4573d6000803e3d6000fd5b50505050565b80600160003373ffffffffffffffffffffffffffffffffffffffff1673ffffffffffffffffffffffffffffffffffffffff16815260200190815260200160002054101561030657600080fd5b60008183610314919061058d565b905081600160003373ffffffffffffffffffffffffffffffffffffffff1673ffffffffffffffffffffffffffffffffffffffff168152602001908152602001600020600082825461036591906105cf565b925050819055503373ffffffffffffffffffffffffffffffffffffffff166108fc829081150290604051600060405180830381858888f193505050501580156103b2573d6000803e3d6000fd5b50505050565b6000600160003373ffffffffffffffffffffffffffffffffffffffff1673ffffffffffffffffffffffffffffffffffffffff16815260200190815260200160002054905090565b80600160003373ffffffffffffffffffffffffffffffffffffffff1673ffffffffffffffffffffffffffffffffffffffff168152602001908152602001600020600082825461044e9190610559565b9250508190555050565b600080fd5b6000819050919050565b6104708161045d565b811461047b57600080fd5b50565b60008135905061048d81610467565b92915050565b6000602082840312156104a9576104a8610458565b5b60006104b78482850161047e565b91505092915050565b6104c98161045d565b82525050565b60006020820190506104e460008301846104c0565b92915050565b6000806040838503121561050157610500610458565b5b600061050f8582860161047e565b92505060206105208582860161047e565b9150509250929050565b7f4e487b7100000000000000000000000000000000000000000000000000000000600052601160045260246000fd5b60006105648261045d565b915061056f8361045d565b92508282019050808211156105875761058661052a565b5b92915050565b60006105988261045d565b91506105a38361045d565b92508282026105b18161045d565b915082820484148315176105c8576105c761052a565b5b5092915050565b60006105da8261045d565b91506105e58361045d565b92508282039050818111156105fd576105fc61052a565b5b9291505056fea26469706673582212204d1dfbd28eb2f54a46283aa0c26f32515d4fa18a54a4597dead9bdefd04f962364736f6c63430008110033",
  "immutableReferences": {},
  "source": "//SPDX-License-Identifier: MIT\npragma solidity ^0.8.17;\n\ncontract FruitsShop {\n    mapping(address => uint256) myBanana;\n    mapping(address => uint256) myMango;\n\n    //   \n    function buyBanana(uint256 _number) public payable {\n        myBanana[msg.sender] += _number;\n    }\n\n    //   \n    function buyMango(uint256 _number) public payable {\n        myMango[msg.sender] += _number;\n    }\n\n    //   \n    function sellBanana(uint256 _price, uint256 _number) public payable {\n        require(myBanana[msg.sender] >= _number);\n        uint256 refund = _price * _number;\n        myBanana[msg.sender] -= _number;\n        payable(msg.sender).transfer(refund);\n    }\n\n    //   \n    function sellMango(uint256 _price, uint256 _number) public payable {\n        require(myMango[msg.sender] >= _number);\n        uint256 refund = _price * _number;\n        myMango[msg.sender] -= _number;\n        payable(msg.sender).transfer(refund);\n    }\n\n    //    \n    function getBanana() public view returns (uint256) {\n        return myBanana[msg.sender];\n    }\n\n    //    \n    function getMango() public view returns (uint256) {\n        return myMango[msg.sender];\n    }\n}\n",
  "sourcePath": "/Users/allen/Documents/KGA_blockchain/KGA_class/2022_Nov/1130_fruits_shop/contracts/FruitsShop.sol",
  "compiler": {
    "name": "solc",
    "version": "0.8.17+commit.8df45f5f.Emscripten.clang"
  },
  "schemaVersion": "3.4.11",
  "updatedAt": "2022-11-30T08:06:19.859Z",
  "networkType": "ethereum",
  "devdoc": {
    "kind": "dev",
    "methods": {},
    "version": 1
  },
  "userdoc": {
    "kind": "user",
    "methods": {},
    "version": 1
  }
}