{
  "contractName": "ERC20",
  "abi": [
    {
      "anonymous": false,
      "inputs": [
        {
          "indexed": false,
          "internalType": "address",
          "name": "owner",
          "type": "address"
        },
        {
          "indexed": false,
          "internalType": "address",
          "name": "spender",
          "type": "address"
        },
        {
          "indexed": false,
          "internalType": "uint256",
          "name": "value",
          "type": "uint256"
        }
      ],
      "name": "Approval",
      "type": "event"
    },
    {
      "anonymous": false,
      "inputs": [
        {
          "indexed": false,
          "internalType": "address",
          "name": "from",
          "type": "address"
        },
        {
          "indexed": false,
          "internalType": "address",
          "name": "to",
          "type": "address"
        },
        {
          "indexed": false,
          "internalType": "uint256",
          "name": "value",
          "type": "uint256"
        }
      ],
      "name": "Transfer",
      "type": "event"
    },
    {
      "inputs": [
        {
          "internalType": "address",
          "name": "",
          "type": "address"
        },
        {
          "internalType": "address",
          "name": "",
          "type": "address"
        }
      ],
      "name": "allowance",
      "outputs": [
        {
          "internalType": "uint256",
          "name": "",
          "type": "uint256"
        }
      ],
      "stateMutability": "view",
      "type": "function"
    },
    {
      "inputs": [
        {
          "internalType": "address",
          "name": "",
          "type": "address"
        }
      ],
      "name": "balances",
      "outputs": [
        {
          "internalType": "uint256",
          "name": "",
          "type": "uint256"
        }
      ],
      "stateMutability": "view",
      "type": "function"
    },
    {
      "inputs": [],
      "name": "decimals",
      "outputs": [
        {
          "internalType": "uint256",
          "name": "",
          "type": "uint256"
        }
      ],
      "stateMutability": "view",
      "type": "function"
    },
    {
      "inputs": [],
      "name": "name",
      "outputs": [
        {
          "internalType": "string",
          "name": "",
          "type": "string"
        }
      ],
      "stateMutability": "view",
      "type": "function"
    },
    {
      "inputs": [],
      "name": "symbol",
      "outputs": [
        {
          "internalType": "string",
          "name": "",
          "type": "string"
        }
      ],
      "stateMutability": "view",
      "type": "function"
    },
    {
      "inputs": [],
      "name": "totalSupply",
      "outputs": [
        {
          "internalType": "uint256",
          "name": "",
          "type": "uint256"
        }
      ],
      "stateMutability": "view",
      "type": "function"
    },
    {
      "inputs": [
        {
          "internalType": "address",
          "name": "account",
          "type": "address"
        }
      ],
      "name": "balanceOf",
      "outputs": [
        {
          "internalType": "uint256",
          "name": "",
          "type": "uint256"
        }
      ],
      "stateMutability": "view",
      "type": "function"
    },
    {
      "inputs": [
        {
          "internalType": "address",
          "name": "recipient",
          "type": "address"
        },
        {
          "internalType": "uint256",
          "name": "amount",
          "type": "uint256"
        }
      ],
      "name": "transfer",
      "outputs": [
        {
          "internalType": "bool",
          "name": "",
          "type": "bool"
        }
      ],
      "stateMutability": "nonpayable",
      "type": "function"
    },
    {
      "inputs": [
        {
          "internalType": "address",
          "name": "spender",
          "type": "address"
        },
        {
          "internalType": "uint256",
          "name": "amount",
          "type": "uint256"
        }
      ],
      "name": "approve",
      "outputs": [
        {
          "internalType": "bool",
          "name": "",
          "type": "bool"
        }
      ],
      "stateMutability": "nonpayable",
      "type": "function"
    },
    {
      "inputs": [
        {
          "internalType": "address",
          "name": "sender",
          "type": "address"
        },
        {
          "internalType": "address",
          "name": "recipient",
          "type": "address"
        },
        {
          "internalType": "uint256",
          "name": "amount",
          "type": "uint256"
        }
      ],
      "name": "transferFrom",
      "outputs": [
        {
          "internalType": "bool",
          "name": "",
          "type": "bool"
        }
      ],
      "stateMutability": "nonpayable",
      "type": "function"
    },
    {
      "inputs": [
        {
          "internalType": "uint256",
          "name": "amount",
          "type": "uint256"
        }
      ],
      "name": "burn",
      "outputs": [],
      "stateMutability": "nonpayable",
      "type": "function"
    }
  ],
  "bytecode": "0x6080604052601260025534801561001557600080fd5b50610cd4806100256000396000f3fe608060405234801561001057600080fd5b50600436106100a95760003560e01c8063313ce56711610071578063313ce5671461017a57806342966c681461019857806370a08231146101b457806395d89b41146101e4578063a9059cbb14610202578063dd62ed3e14610232576100a9565b806306fdde03146100ae578063095ea7b3146100cc57806318160ddd146100fc57806323b872dd1461011a57806327e235e31461014a575b600080fd5b6100b6610262565b6040516100c39190610919565b60405180910390f35b6100e660048036038101906100e191906109d4565b6102f0565b6040516100f39190610a2f565b60405180910390f35b6101046103b8565b6040516101119190610a59565b60405180910390f35b610134600480360381019061012f9190610a74565b6103be565b6040516101419190610a2f565b60405180910390f35b610164600480360381019061015f9190610ac7565b6105ce565b6040516101719190610a59565b60405180910390f35b6101826105e6565b60405161018f9190610a59565b60405180910390f35b6101b260048036038101906101ad9190610af4565b6105ec565b005b6101ce60048036038101906101c99190610ac7565b61069a565b6040516101db9190610a59565b60405180910390f35b6101ec6106e3565b6040516101f99190610919565b60405180910390f35b61021c600480360381019061021791906109d4565b610771565b6040516102299190610a2f565b60405180910390f35b61024c60048036038101906102479190610b21565b610864565b6040516102599190610a59565b60405180910390f35b6000805461026f90610b90565b80601f016020809104026020016040519081016040528092919081815260200182805461029b90610b90565b80156102e85780601f106102bd576101008083540402835291602001916102e8565b820191906000526020600020905b8154815290600101906020018083116102cb57829003601f168201915b505050505081565b600081600560003373ffffffffffffffffffffffffffffffffffffffff1673ffffffffffffffffffffffffffffffffffffffff16815260200190815260200160002060008573ffffffffffffffffffffffffffffffffffffffff1673ffffffffffffffffffffffffffffffffffffffff168152602001908152602001600020819055507f8c5be1e5ebec7d5bd14f71427d1e84f3dd0314c0f7b2291e5b200ac8c7c3b9253384846040516103a693929190610bd0565b60405180910390a16001905092915050565b60035481565b600081600560008673ffffffffffffffffffffffffffffffffffffffff1673ffffffffffffffffffffffffffffffffffffffff16815260200190815260200160002060003373ffffffffffffffffffffffffffffffffffffffff1673ffffffffffffffffffffffffffffffffffffffff16815260200190815260200160002054101561044957600080fd5b81600560008673ffffffffffffffffffffffffffffffffffffffff1673ffffffffffffffffffffffffffffffffffffffff16815260200190815260200160002060003373ffffffffffffffffffffffffffffffffffffffff1673ffffffffffffffffffffffffffffffffffffffff16815260200190815260200160002060008282546104d59190610c36565b9250508190555081600460008673ffffffffffffffffffffffffffffffffffffffff1673ffffffffffffffffffffffffffffffffffffffff168152602001908152602001600020600082825461052b9190610c36565b9250508190555081600460008573ffffffffffffffffffffffffffffffffffffffff1673ffffffffffffffffffffffffffffffffffffffff16815260200190815260200160002060008282546105819190610c6a565b925050819055507fddf252ad1be2c89b69c2b068fc378daa952ba7f163c4a11628f55a4df523b3ef8484846040516105bb93929190610bd0565b60405180910390a1600190509392505050565b60046020528060005260406000206000915090505481565b60025481565b80600460003373ffffffffffffffffffffffffffffffffffffffff1673ffffffffffffffffffffffffffffffffffffffff168152602001908152602001600020600082825461063b9190610c36565b9250508190555080600360008282546106549190610c36565b925050819055507fddf252ad1be2c89b69c2b068fc378daa952ba7f163c4a11628f55a4df523b3ef3360008360405161068f93929190610bd0565b60405180910390a150565b6000600460008373ffffffffffffffffffffffffffffffffffffffff1673ffffffffffffffffffffffffffffffffffffffff168152602001908152602001600020549050919050565b600180546106f090610b90565b80601f016020809104026020016040519081016040528092919081815260200182805461071c90610b90565b80156107695780601f1061073e57610100808354040283529160200191610769565b820191906000526020600020905b81548152906001019060200180831161074c57829003601f168201915b505050505081565b600081600460003373ffffffffffffffffffffffffffffffffffffffff1673ffffffffffffffffffffffffffffffffffffffff16815260200190815260200160002060008282546107c29190610c36565b9250508190555081600460008573ffffffffffffffffffffffffffffffffffffffff1673ffffffffffffffffffffffffffffffffffffffff16815260200190815260200160002060008282546108189190610c6a565b925050819055507fddf252ad1be2c89b69c2b068fc378daa952ba7f163c4a11628f55a4df523b3ef33848460405161085293929190610bd0565b60405180910390a16001905092915050565b6005602052816000526040600020602052806000526040600020600091509150505481565b600081519050919050565b600082825260208201905092915050565b60005b838110156108c35780820151818401526020810190506108a8565b60008484015250505050565b6000601f19601f8301169050919050565b60006108eb82610889565b6108f58185610894565b93506109058185602086016108a5565b61090e816108cf565b840191505092915050565b6000602082019050818103600083015261093381846108e0565b905092915050565b600080fd5b600073ffffffffffffffffffffffffffffffffffffffff82169050919050565b600061096b82610940565b9050919050565b61097b81610960565b811461098657600080fd5b50565b60008135905061099881610972565b92915050565b6000819050919050565b6109b18161099e565b81146109bc57600080fd5b50565b6000813590506109ce816109a8565b92915050565b600080604083850312156109eb576109ea61093b565b5b60006109f985828601610989565b9250506020610a0a858286016109bf565b9150509250929050565b60008115159050919050565b610a2981610a14565b82525050565b6000602082019050610a446000830184610a20565b92915050565b610a538161099e565b82525050565b6000602082019050610a6e6000830184610a4a565b92915050565b600080600060608486031215610a8d57610a8c61093b565b5b6000610a9b86828701610989565b9350506020610aac86828701610989565b9250506040610abd868287016109bf565b9150509250925092565b600060208284031215610add57610adc61093b565b5b6000610aeb84828501610989565b91505092915050565b600060208284031215610b0a57610b0961093b565b5b6000610b18848285016109bf565b91505092915050565b60008060408385031215610b3857610b3761093b565b5b6000610b4685828601610989565b9250506020610b5785828601610989565b9150509250929050565b7f4e487b7100000000000000000000000000000000000000000000000000000000600052602260045260246000fd5b60006002820490506001821680610ba857607f821691505b602082108103610bbb57610bba610b61565b5b50919050565b610bca81610960565b82525050565b6000606082019050610be56000830186610bc1565b610bf26020830185610bc1565b610bff6040830184610a4a565b949350505050565b7f4e487b7100000000000000000000000000000000000000000000000000000000600052601160045260246000fd5b6000610c418261099e565b9150610c4c8361099e565b9250828203905081811115610c6457610c63610c07565b5b92915050565b6000610c758261099e565b9150610c808361099e565b9250828201905080821115610c9857610c97610c07565b5b9291505056fea2646970667358221220cf8ef21987ccb2d2d83702d99bf854ac5cfb48fb506e70db20c4c26855e2f82064736f6c63430008110033",
  "immutableReferences": {},
  "source": "// SDPX-License-Identifier: MIT\npragma solidity ^0.8.17;\n\ncontract ERC20 {\n    //   \n    string public name; //  \n    string public symbol; //  \n    uint256 public decimals = 18; //  \n\n    uint256 public totalSupply; //  \n    // address(40  20byte) , uint , balances    \n    mapping(address => uint256) public balances;\n    //   \n    // : address, : {: address, : uint},  allowance  \n    mapping(address => mapping(address => uint256)) public allowance;\n\n    /*  \n    const allowance = {\n        address : {_address: uint}\n    } */\n\n    //   \n    // external   / .      .\n    function balanceOf(address account) external view returns (uint256) {\n        return balances[account];\n    }\n\n    //   \n    function transfer(address recipient, uint256 amount)\n        external\n        returns (bool)\n    {\n        balances[msg.sender] -= amount;\n        balances[recipient] += amount;\n        emit Transfer(msg.sender, recipient, amount);\n        return true;\n    }\n\n    //    \n    function approve(address spender, uint256 amount) external returns (bool) {\n        allowance[msg.sender][spender] = amount;\n        emit Approval(msg.sender, spender, amount);\n        return true;\n    }\n\n    function transferFrom(\n        address sender,\n        address recipient,\n        uint256 amount\n    ) external returns (bool) {\n        // \n        require(allowance[sender][msg.sender] >= amount);\n\n        allowance[sender][msg.sender] -= amount;\n        balances[sender] -= amount;\n        balances[recipient] += amount;\n        emit Transfer(sender, recipient, amount);\n        return true;\n\n        // sender:    \n        // msg.sender: transferFrom()   ,      \n    }\n\n    // internal:         \n    // private  _    _  .\n\n    //   . CA     \n    function mint(uint amount) internal {\n        balances[msg.sender] += amount;\n        totalSupply += amount;\n        // address(0) from    null \n        emit Transfer(address(0), msg.sender, amount);\n    }\n\n    //   \n    function burn(uint amount) external {\n        balances[msg.sender] -= amount;\n        totalSupply -= amount;\n        // address(0) to    null \n        emit Transfer(msg.sender, address(0), amount);\n    }\n\n    //   \n    event Transfer(address from, address to, uint256 value);\n    event Approval(address owner, address spender, uint256 value);\n}\n",
  "sourcePath": "/Users/allen/Documents/KGA_blockchain/KGA_class/2022_Dec/221202/contracts/ERC20.sol",
  "compiler": {
    "name": "solc",
    "version": "0.8.17+commit.8df45f5f.Emscripten.clang"
  },
  "schemaVersion": "3.4.11",
  "updatedAt": "2022-12-02T03:35:11.009Z",
  "devdoc": {
    "kind": "dev",
    "methods": {},
    "version": 1
  },
  "userdoc": {
    "kind": "user",
    "methods": {},
    "version": 1
  }
}